:020000041000EA
:1000000000B5324B212058609868022188439860DF
:10001000D860186158612E4B002199600221596106
:100020000121F02299502B49196001219960352056
:1000300000F044F80222904214D00621196600F024
:1000400034F8196E01211966002018661A6600F04E
:100050002CF8196E196E196E052000F02FF8012189
:100060000842F9D1002199601B49196000215960AB
:100070001A491B48016001219960EB211966A021F2
:10008000196600F012F800219960164914480160C1
:100090000121996001BC002800D000471248134993
:1000A000086003C880F30888084703B5996A0420EC
:1000B0000142FBD001200142F8D103BD02B5186610
:1000C0001866FFF7F2FF186E186E02BD00000240BE
:1000D000000000180000070000035F00212200005C
:1000E000F4000018222000A00001001008ED00E03C
:1000F00000000000000000000000000074B24E7A12
:1001000000200420F7010010C3010010C5010010F9
:10011000C1010010C1010010C1010010C101001097
:10012000C1010010C1010010C1010010C701001081
:10013000C1010010C1010010C9010010CB01001065
:10014000CD010010CD010010CD010010CD01001037
:10015000CD010010CD010010CD010010CD01001027
:10016000CD010010CD010010CD010010CD01001017
:10017000CD010010CD010010CD010010CD01001007
:10018000CD010010CD010010CD010010CD010010F7
:10019000CD010010CD010010CD010010CD010010E7
:1001A000CD010010CD010010CD010010CD010010D7
:1001B000CD010010CD010010CD010010CD010010C7
:1001C00000BE00BE00BE00BE00BE00BE00F04BF888
:1001D000103800BEF2EB8871A4280110C828011065
:1001E0003402001090A31AE700202149086006C8D5
:1001F00081F3088810471F48006800282FD10DA4FC
:100200000ECC002902D000F012F8F9E71A491B4A77
:10021000002000E001C19142FCD1194988471949E9
:1002200088471949884700BEFDE701C901C29A42C3
:10023000FBD37047C8280110C0000020F00F002039
:10024000F83701100000042000000420F8370110E6
:1002500000100420001004200000000070470B482C
:1002600005F084FA0047EFF30580C0B27047000044
:1002700008ED00E0000000D0F00F0020C41D0020B9
:100280000D3C001009120010213D001057560000CF
:1002900006005250ABB360530017011006005250D5
:1002A000861C030210170110060052505422A29D12
:1002B0001C17011005005250DE65F468F837011074
:1002C000F8B5C0460448054B10B5834203D0044B33
:1002D000002B00D0984710BDF00F0020F00F002039
:1002E0000000000006480749091A8B10C90FC918F9
:1002F00010B5491003D0044B002B00D0984710BD17
:10030000F00F0020F00F00200000000010B5074C97
:100310002378002B09D1FFF7D5FF054B002B02D026
:10032000044800E000BF0123237010BDF810002036
:100330000000000078F20010054B10B5002B03D030
:100340000449054800E000BFFFF7CCFF10BDC046E0
:1003500000000000FC10002078F20010F8B53A4CC4
:1003600028220021200006F09FFA04232377242668
:10037000A3551F2767757C2006F07CFA0500A06155
:10038000F82006F077FA20627C220021280006F08F
:100390008BFAA35D627D5A4352000021206A06F069
:1003A00083FAA15D022001F089FE217F042001F083
:1003B00085FE617D052001F081FE3523A374343B69
:1003C000637116332372A775123B63772522A354FA
:1003D00001F0B0FE002813D01B4B00229A70DA7097
:1003E0001A4806F0DFFB1A492B2001F03BFE0128DA
:1003F0000DD0154B0222DA70164806F0D3FBF8BD7B
:10040000114B0122DA70144806F0CCFBEBE71349DC
:10041000183001F027FE0128EBD11149623001F0BC
:1004200021FE0128E5D10F49243001F01BFE0128EF
:10043000DFD10D49163001F015FE0128D9D10B4846
:1004400006F0B0FBDBE7C046C41A002078F20010CB
:10045000C51A00200CF3001090F20010C81A0020FA
:10046000CA1A0020CB1A0020D51A0020E4F200108E
:1004700030B587B0424806F095FB0A22002101A85A
:1004800006F012FAFA20400002F0C0FF3D4806F0E4
:1004900089FB3D4C05A9200009F0B8FD3B4806F05A
:1004A00081FB04A9200009F0B1FD049A05993848A0
:1004B00006F0AAFB374806F075FB0F246C442100B8
:1004C000354809F0A3FD2378722B07D0772B25D070
:1004D000712B4FD0314806F065FBCEE70121049B1C
:1004E00019400139C901059B1943CCB201A920006B
:1004F00001F0B8FD012806D001AB1A782100284888
:1005000006F082FBB9E701AB1A782100254806F016
:100510007BFBFA20800002F079FFAEE7FA20400072
:1005200002F074FF204806F03DFB01AD29001F4892
:1005300009F06CFD0121049B19400139C901059B9B
:100540001943CCB22978200001F0B8FD012806D06B
:1005500001AB1A782100164806F056FB8DE701AB77
:100560001A782100134806F04FFBFA20800002F0B1
:100570004DFF82E7104806F015FB07B030BDC046BE
:1005800068F3001090F300109CF30010A0F300102B
:10059000B0F30010C8F30010F8F30010E0F40010FE
:1005A00024F40010FCF3001054F40010A00101101A
:1005B00084F400105CF40010B4F4001070B586B040
:1005C00004AC104B1A6804921A79227102AD9A6831
:1005D00002921B7B2B710C4806F0E4FA0B4E01A92A
:1005E000300009F013FD0A4806F0DCFA69463000D5
:1005F00009F00CFD009BE95C019BE05C01F03EFE14
:1006000006B070BD3C060110F0F4001048F5001073
:100610004CF5001010B582B0324806F0C3FA3248EB
:1006200006F0C0FA314806F0BDFA01A9304809F0D9
:10063000EDFC1DE0042B48D1FFF7C0FF0BE02D4877
:1006400006F0B0FA6B46DC1C2100294809F0DEFCFC
:10065000207801F0E5FD284806F0A4FA642002F0B5
:10066000D5FE264806F0D0FA01A9214809F0CEFCB3
:10067000019B002B33D0032B17D0DBDC012BDED00A
:10068000022B22D11E4806F08DFA1E4C21681E480E
:1006900009F0BCFC20681022002109F071FEC0B2F4
:1006A0006B46D87001F0DEFDD5E7184806F07AFAFF
:1006B000144C2168144809F0A9FC2068102200217C
:1006C00009F05EFE01F0B8FDC5E7114806F06AFAD0
:1006D000054806F067FA054806F064FABBE702B081
:1006E00010BDC046A4F5001000F600105CF6001026
:1006F00048F50010B8F6001028F7001044F7001075
:10070000E4F60010EC1A0020F4F60010F8F60010E1
:1007100010F7001010B582B02D4BDB7C002B2AD0D7
:100720002B4B1B7D002B10D02A4806F03BFA2A48A1
:1007300006F038FA6B46DC1D2100284809F066FCFB
:100740002378792B08D002B010BD254806F02AFA8C
:10075000244806F027FAEDE7234806F023FA0120A3
:1007600001F0C0FA214802F051FE214806F01AFAC1
:10077000642002F04BFE1F4806F014FA6B46DC1DA5
:100780002100164809F042FC2378792B16D01A482C
:1007900006F008FA194806F005FA01F023F918489E
:1007A00006F000FA01F03CFA831C0AD0154806F066
:1007B000F9F9D0231B0608225A61C4E7FFF72AFF84
:1007C000E8E7663002F022FE0F4806F0EBF9BAE7E0
:1007D000C41A002048F7001074F70010F8F3001056
:1007E000C4F70010ECF7001010F800108813000098
:1007F00044F8001058F8001080F80010B0F800100D
:10080000D4F8001030F9001004F9001010B582B0CF
:100810000C4806F0C7F90C4806F0C4F90B4C01A9C6
:10082000200009F0F3FB0A4806F0BCF969462000F5
:1008300009F0ECFB009BD9B2019BD8B201F014F98E
:1008400002B010BD4CF9001060F9001048F500101E
:1008500074F9001070B50B4806F0A4F9D0242406F2
:1008600008256561012001F059F9074806F09AF959
:100870000021064809F0CAFB002001F04FF9A561EC
:1008800070BDC04690F90010A4F9001048F50010A2
:1008900010B584B015E0039BD8B26B46D91D01F0AA
:1008A000E9FE831C34D0C31C37D06B46DA79FF21B4
:1008B000039B19402E4806F0A7F9FA20400002F0E9
:1008C000A5FD2C4C64220021206805F0EDFF2A488C
:1008D00006F068F92168294809F098FB23681B781D
:1008E000712B18D0264806F05DF903A9254809F0B8
:1008F0008DFB0399244806F087F91E4B1B681B7873
:10090000722BC8D0772B0CD0204806F04BF9D4E7D7
:100910001F4806F047F904B010BD1E4806F042F922
:10092000CBE71D4806F03EF902A91C4809F06EFB12
:10093000029BD9B2039BD8B26B46DA1D01F062FE6E
:10094000831C0AD0C31C0CD06B46DA79FF21039BB1
:100950001940134806F058F9AFE7124806F022F99B
:10096000D9E7FF21039B19400F4806F04DF9A4E792
:1009700074FA0010EC1A0020C8F90010F4F6001008
:10098000E8F900109CF3001004FA001040FB00107E
:100990000CFA001038FA0010A0FA0010A0010110A3
:1009A00014FB0010ACFA0010D4FA001070B5254802
:1009B00006F0F8F8244BFF22DA70D0231B06DF3A4A
:1009C0005A61002403E00A2006F090F801341E4B1F
:1009D000DB78002B16D0022C14DCFFF7BFFC1A4B7F
:1009E000DB78002BF2D0194806F0DCF80025052D45
:1009F000E9DCFA20400002F009FD2A2006F076F832
:100A00000135F4E7D022120620219161002B08D194
:100A10000F4806F0C7F8D0231B0604225A610020B5
:100A200070BD0C4806F0BEF80B4806F0EDF8D02378
:100A30001B0610225A610A2002F0E8FC0120404205
:100A4000EEE7C04650FB0010C41A00206CFB0010FB
:100A5000E0FB00109CFB0010D0FB0010064BDB7C81
:100A6000002B04D0D0231B0608225A617047D023E4
:100A70001B0608229A61F9E7C41A002010B516482F
:100A800006F090F801F0AAFB144802F0BFFC002029
:100A900001F028F9831C1CD0114806F083F801F0FE
:100AA000DAFAFFF783FF0400431C0AD000F05EFD72
:100AB000BF21012001F05CFA041E04D1094806F0B0
:100AC00071F8200010BD084806F09EF80124644229
:100AD000F7E701246442F4E7F8FB0010EC13000090
:100AE00030FC001048FC00106CFC001070B51A4877
:100AF00006F058F8194B18686422002105F0D4FE5E
:100B0000174806F0B1F8431CFAD100240026622CE5
:100B100017DC06F089F8114D2B6818556420002168
:100B200002F048FC286863230022C2540219035DC6
:100B30000D2B04D009F03CFB86B20134E7E700231B
:100B40001370064C32002168064806F05DF82068F4
:100B5000310001F089F970BD9CFC0010EC1A0020F6
:100B600050C30000A8FC001010B51A4806F01AF88F
:100B7000194806F079F8431CFAD1012409E0174B13
:100B8000196A174806F040F8164806F06DF8431C3D
:100B90001BD1124B186A2422995C5A7D4A43520099
:100BA000002105F081FE0A2210212E2001F080FC98
:100BB0000028E9D101F0B4F9002CE0D0074B196A04
:100BC000094806F021F80024DEE70A2005F08EFF30
:100BD00010BDC046CCFC001050C30000C41A002059
:100BE000F4F6001010270000E4FC001010B582B0ED
:100BF00004000023019301F04DFB031D2CD0431C86
:100C000033D0431D2DD0314805F0CCFF012001F039
:100C1000CDFB00282DD1210001A801F039F80400F6
:100C2000002001F0C3FB00282BD101F0A1FC00281B
:100C30002FD101F0B3FC002C33D1254BDB68019A96
:100C400093420CD101F010F8002836D001F062FB7D
:100C5000204805F0A7FF02E01F4805F0A3FF02B0FF
:100C600010BD1E4805F09EFFF9E71D4805F09AFFEC
:100C7000F5E71C4805F096FFD0231B0610225A61A9
:100C8000EDE7194805F08EFFD0231B0610225A61AC
:100C9000E5E7164805F086FFD0231B0610225A61AF
:100CA000DDE701F037FB002803D1114805F07AFF9A
:100CB000D5E7104805F076FFF7E701990E4805F0F3
:100CC000A3FFD0231B0608225A61C8E7B4FD001019
:100CD000C41A0020FCFE0010F8FC00101CFD0010DF
:100CE00060FD0010D8FD00101CFE00105CFE00101E
:100CF000D8FE001098FE00101CFF001070B588B0E0
:100D000000231E226A44138007AA138006936420DE
:100D100005F0B0FDE44B18606422002105F0C4FD2D
:100D20000DE0D024240620256561FFF7A1FBA56115
:100D3000DE4805F037FFFA20400002F067FBDC4890
:100D400005F030FFDB4805F02DFFDB4805F02AFFFA
:100D5000DA4805F027FFDA4805F024FFD94805F006
:100D600021FFD94805F01EFF3E2005F0BFFEFFF72A
:100D700075FECD4C2168D54809F048F923681C78E8
:100D8000D34805F071FF431CFAD12300613BDAB26E
:100D9000172A00D924E29300CE4AD3589F46CE4862
:100DA00005F000FFD024240620256561362000F0E0
:100DB000B3FB012002F02AFB3E2000F045FB0100BE
:100DC000C64805F021FF142000F03EFB0100C44896
:100DD00005F01AFF132000F037FB0100C14805F0B1
:100DE00013FF122000F030FB0100BF4805F00CFF9C
:100DF0000D2000F029FB0100BC4805F005FF0E2086
:100E000000F022FB0100BA4805F0FEFE0F2000F0C2
:100E10001BFB0100B74805F0F7FE152000F014FB9E
:100E20000100B54805F0F0FE182000F00DFB0100B0
:100E3000B24805F0E9FE082000F006FB0100B048CA
:100E400005F0E2FE022000F0FFFA0100AD4805F0D7
:100E5000DBFE0A2000F0F8FA0100AB4805F0D4FEF2
:100E600001F0F1F8A56163E7A84805F09BFED023E7
:100E70001B0620225A61642002F0C8FAA44805F03B
:100E800091FE06A9A34809F0C1F806980B281DD8C1
:100E9000C0B201F0ABF9A04805F084FE9D4C05A955
:100EA000200009F0B3F89D4805F07CFE04A920005D
:100EB00009F0ACF807AB1E226A440499059800F0CB
:100EC00021FCD0231B0620229A6131E7944805F0CB
:100ED00069FEE0E7934805F065FED0252D06202643
:100EE0006E61642002F092FA894805F05BFE894C3D
:100EF00006A9200009F08AF8874805F053FE05A9E5
:100F0000200009F083F8854805F04CFE04A9200074
:100F100009F07CF8059BD9B2069BD8B207AB0093C9
:100F20001E236B44049A00F041FBAE6100E77E484B
:100F300005F038FED024240620256561642002F0E7
:100F400065FA00F04FFDA561F2E6784805F02AFE4B
:100F5000D0231B0620225A61754805F023FE03A901
:100F60006C4809F053F8039B002B05D0012B0CD0E3
:100F7000704805F017FE03E000210698FFF746FCD5
:100F8000D0231B0620229A61D2E6FFF763FCF7E725
:100F9000694805F007FED024240620256561FFF787
:100FA000B9FBA561C4E6654805F0FCFDD024240624
:100FB00020256561FFF72EFBA561B9E6604805F0C5
:100FC000F1FDD0231B0620225A615E4BDB7C002BF7
:100FD00007D15D4805F0E6FDD0231B0620229A616B
:100FE000A6E6012000F07EFE01F094F9431D05D035
:100FF000431C0DD0554805F007FE02E0544805F0AB
:1010000003FED0231B0620229A61183A9A618FE6CC
:10101000504805F0F9FDF4E74F4805F0C3FDD02333
:101020001B0620225A61474BDB7C002B07D1464828
:1010300005F0B8FDD0231B0620229A6178E6012036
:1010400001F06AFB00280CD0002001F065FB0028AD
:1010500007D0424805F0A6FDD0231B0620229A6146
:1010600066E6114B1B6800221A7001E0FFF77CFD59
:101070003B4805F097FD0C4C21683A4808F0C6FF44
:1010800023681B78712B0AD0722BEFD0732B02D1FF
:10109000FFF72CFDECE7344805F084FDE8E7D023AA
:1010A0001B0620229A6143E6EC1A002044FF001040
:1010B00048FF001090FF0010D8FF0010180001102A
:1010C0005C000110A4000110D0000110F8F3001022
:1010D00010270000DC05011018010110400101106B
:1010E0005401011064010110740101108401011008
:1010F00094010110A4010110B4010110C4010110F8
:10110000D4010110E8010110F801011008020110DA
:1011100060F9001048F500106C0201108002011007
:101120003402011098020110C4020110EC020110F7
:1011300018030110440301105C0301109003011017
:10114000BC030110C41A0020DC0301106804011064
:10115000080401102C04011098040110BC040110B3
:10116000E4040110F4F60010100501101E4805F00B
:1011700019FDD0231B0620225A611C4BDB7C002B5F
:1011800007D11B4805F00EFDD0231B0620229A61D3
:10119000CEE5FFF77DFBD0231B0620229A61C7E531
:1011A000144805F0FFFCD0231B0620225A61FFF7EC
:1011B00065FC431C04D0D0231B0620229A61B7E5AE
:1011C0000D4805F0EFFCB3E50C4805F0EBFCD0242E
:1011D0002406202565610A48FFF708FDA561A7E5FB
:1011E000084805F0DFFCA3E528050110C41A00201B
:1011F000DC0301104C050110680501109005011079
:10120000204E0000C405011010B500F025F80021A3
:101210000E4808F0FBFEFA20400002F0F7F8FFF756
:10122000C5FB431C01D1002010BD00F09FF9BF2178
:10123000012000F09DFE002804D1054805F0B2FC15
:10124000FFF75CFD034805F0DFFCF9E79CF30010B5
:1012500048FC00106CFC001070B505F0E1FC214B5F
:101260001B68586880231B010022002108F0EEFE55
:101270001D491E4808F05EFB08F090FB1A2001F0A3
:10128000D9FA1B4B1B68E022D2011340194A1360A4
:101290000121102001F0B6FA0521142001F0B2FA64
:1012A00005210D2001F0AEFA0121122001F0AAFA69
:1012B0000121132001F0A6FAD02424068022520333
:1012C000626280239B016362626163610E2001F0B0
:1012D000B1FA8023DB016362074D280001F0B5FA03
:1012E000656270BD2006002090D0030000C003405E
:1012F00000C0044000D004403C004002F0B5C646A7
:1013000000B582B08846150080235B420343DBB200
:101310006A46D371834223D0C046C046C046D02619
:10132000360680277F03B761C046C046C0460F4CD3
:1013300001226B46D91D20000DF08EFF2B00424686
:10134000002120000DF058FFC046C046C04677611E
:10135000C046C046C046C0B202B004BC9046F0BD14
:10136000034805F01FFCFF20F6E7C04600C003401D
:101370004C060110F0B583B014007F2303406A4689
:10138000D3716A469171834221D1C046C046C0469E
:10139000D0252D0680267603AE61C046C046C046E5
:1013A0000D4F01226B46D91D38000DF055FF22006C
:1013B0006B46991D38000DF04FFFC046C046C04631
:1013C0006E61C046C046C046C0B203B0F0BD03481F
:1013D00005F0E8FBFF20F8E700C00340900601108D
:1013E000F0B585B0019115007F23034002AAD371A7
:1013F000834220D1C046C046C046D026360680274C
:101400007F03B761C046C046C0460D4C012202AB07
:10141000D91D20000DF020FF2A00019920000DF0B9
:101420001BFFC046C046C0467761C046C046C046A6
:10143000C0B205B0F0BD034805F0B4FBFF20F8E7EB
:1014400000C0034090060110F0B583B06B46991DB3
:1014500080235B4203430B70C046C046C046C04673
:10146000C046D0252D068026B601AE61C046C046D6
:10147000C046C046C0460D4F012238000DF0ECFEBC
:101480006B46DC1D01232200002138000DF0B4FE64
:10149000C046C046C046C046C0466E61C046C04653
:1014A000C046C046C046207803B0F0BD00C003402F
:1014B000F0B583B07F2318406B46073318706A4637
:1014C000971D3970C046C046C046C046C046D024AD
:1014D00024068025AD01A561C046C046C046C04671
:1014E000C0460C4E0122190030000DF0B5FE01225D
:1014F000390030000DF0B0FEC046C046C046C046C0
:10150000C0466561C046C046C046C046C04603B03E
:10151000F0BDC04600C0034030B583B07F23184003
:101520006B46D91D0870C046C046C046C046C0467E
:10153000D02424068025AD01A561C046C046C04622
:10154000C046C046012208480DF086FEC046C0468F
:10155000C046C046C0466561C046C046C046C0469B
:10156000C04603B030BDC04600C0034010B5C04601
:10157000C046C046C046C046D0231B06802292010A
:101580009A61C046C046C046C046C046C046C04636
:10159000C046C046C0465A61C046C046C046C04666
:1015A000C0463220002101F005FF10BDF0B5D6463F
:1015B0004F464646C0B582B00400884691469A46DA
:1015C0000A9E00236A46D3715246138033806B46CD
:1015D000D91C192000F046FD6B46991D6E2000F0C5
:1015E00041FD6B46591D6A2000F03CFD01A97420A5
:1015F00000F038FD0F20204000F0F8FD19216E208A
:1016000000F05CFD23216A2000F058FD052001F068
:10161000FDFE1921742000F051FD0F20002101F082
:10162000C9FE354805F0BEFA002400272AE0D02381
:101630001B0604225A616B46D91D752000F012FD6D
:101640000120002101F0B6FE6B46DA799306EED553
:101650001F231A406B46DD1DDA712100274805F073
:10166000D3FA2B78FF1831881A1C9BB28B4200D218
:101670000A1C32801921742000F020FD484601F038
:10168000C5FE0134A04508DD1B21742000F016FDC5
:101690000320002101F08EFED6E74146380004F019
:1016A000B9F881B2534619803288154805F0ACFA72
:1016B00001AB1978742000F001FD6420002101F0D5
:1016C00079FE6B4659796A2000F0F8FC642000210D
:1016D00001F070FE6B4699796E2000F0EFFC05205A
:1016E00001F094FE6B46D87800F080FD02B01CBC7F
:1016F00090469946A246F0BDD4060110FC060110A2
:1017000008070110F0B5DE4657464E464546E0B59F
:1017100083B08046894692469B466B46D91D6E2013
:1017200000F0A0FC6B46991D6A2000F09BFC6B4604
:10173000591D5D2000F096FC01A95C2000F092FC90
:1017400019216E2000F0BAFC43216A2000F0B6FC9B
:1017500070215D2000F0B2FC30215C2000F0AEFC76
:10176000052001F053FED02424068023DB036361AF
:101770002B4805F017FA082363610025002600278F
:101780000AE01204120CB6182900264805F03CFAAB
:10179000484601F03BFE013545450DDA224B042257
:1017A0001A60224B1C68E305FBD5204B5A6893B2A4
:1017B0009F42E6D21F00E4E74146300004F02AF8D9
:1017C000534618805B461F80534619883A001848D4
:1017D00005F01AFA6B4699796A2000F06FFC6B46A7
:1017E000D9796E2000F06AFC01AB19785C2000F01A
:1017F00065FC6B4659795D2000F060FCD0231B0628
:1018000008229A618022D2039A610A4805F0CAF937
:1018100003B03CBC90469946A246AB46F0BDC046DC
:101820002C070110FC06011000E0044000C0044039
:101830000807011054070110F0B5DE464F46464632
:10184000C0B584B083460E009046994602ABD91DC0
:101850006E2000F007FC02AB991D6A2000F002FC2C
:1018600002AB591D5D2000F0FDFB03A95C2000F0D8
:10187000F9FB19216E2000F021FC43216A2000F0C1
:101880001DFC70215D2000F019FC30215C2000F06F
:1018900015FC052001F0BAFDD02424068023DB03CB
:1018A0006361474805F07EF90823636101F04AFE51
:1018B00004000D1E1BDB00900F00FA229200002393
:1018C0005846002104F0E8FE24184D41AF4203D8E9
:1018D00005D1009BA34202D901246442E517002DE3
:1018E0000BDB0094019500270024002525E0354BF3
:1018F000354A3D21354802F017FA324B324A3D2134
:10190000324802F011FA002300E00023002B24D11A
:101910002F4B04221A602F4B1B68DB05FBD52D4B88
:101920005B689AB2954200D215001B041B0CE418A8
:101930003000002101F03EFD01370099019A264B4D
:101940005B6A9A42E1D82448806A884203D29A426C
:10195000D9D00123DAE70123D8E73900200003F0CA
:1019600059FF434618804B461D80434619882A007C
:101970001A4805F049F902AB99796A2000F09EFBFC
:1019800002ABD9796E2000F099FB03AB19785C208B
:1019900000F094FB02AB59795D2000F08FFBD0235F
:1019A0001B0608229A618022D2039A610C4805F036
:1019B000F9F804B01CBC90469946A346F0BDC04659
:1019C0002C07011080070110400801109C0701102E
:1019D00000E0044000C0044000400540080701103A
:1019E00054070110F0B5C64600B58AB000240023A4
:1019F0009846194F08E063006A469A5A43463900F0
:101A0000164805F001F90134092C16DCE0B200F0AB
:101A1000EDFB2100124805F0F7F805AE65007319DB
:101A20002A006A44FA2189000B20FFF705FFAB5B0F
:101A3000BB42E0D2A0461F00DDE74346DCB22000F7
:101A400000F0D4FB4146074805F0DEF820000AB05C
:101A500004BC9046F0BDC046FFFF0000F80701102F
:101A6000E407011020080110F0B5C64600B582B0A9
:101A700006000D006B4600225A71244CA779237989
:101A800098466B46991D6E2000F0ECFA6B46D91D06
:101A9000BE2000F0E7FA300000F0A8FB1C21BE20B9
:101AA00000F00CFB280000F0ADFB07216E2000F0D9
:101AB00005FB052001F0AAFC2179154805F0A4F8E2
:101AC0006B4605331B78712B08D0124805F06AF875
:101AD0006B46591D104808F099FAF1E76B46997961
:101AE0006E2000F0EBFA052001F090FC6B46D979EE
:101AF000BE2000F0E3FA404600F078FB380000F02A
:101B000081FB02B004BC9046F0BDC046C41A002060
:101B10005808011088080110F8F3001010B50028CB
:101B20000FD000F085FAD0231B068022D2015A6123
:101B300001213A2000F0C2FA01213E2000F0BEFA55
:101B400010BD00213E2000F0B9FA00213A2000F03B
:101B5000B5FA00F078FAD0231B068022D2019A61F0
:101B6000EEE70000F0B585B0070001F0EBFC0400E3
:101B70000D1E34DB01900E00FA2292000023380083
:101B8000002104F089FD24184D41AE4203D805D14F
:101B9000019BA34202D901246442E517002D24DBF6
:101BA00002ABD91D322000F05DFA02ABD97918489A
:101BB00005F02AF802ABDB795B071CD4FA20800021
:101BC000002101F0F7FB01F0BDFC02000B1E19DB48
:101BD000121BAB41002BE3DB0220404210E00D4B17
:101BE0000D4A3D210D4802F09FF80A4B0A4A3D215B
:101BF0000A4802F099F8FB21322000F05FFA002039
:101C000005B0F0BD034B044A3D21044802F08CF8B6
:101C10009808011080070110AC0801109C07011002
:101C200070B500F005FAD0252D068026F6016E610C
:101C3000012000F019FC0A48FFF794FF0400AE6190
:101C400000F001FA002000F00FFCA31C04D0054BAB
:101C50000122DA74200070BD024B0022DA74F9E729
:101C600010270000C41A002010B50C212A2000F013
:101C700025FA054A0421322000F01AFC002802D17E
:101C8000024B0122DA7410BD10270000C41A002094
:101C900030B583B004000D000322002101A804F038
:101CA00003FE002323602A0010212E2000F000FCF8
:101CB000051E02D0280003B030BD032201A92D204B
:101CC000FFF71CFB2B0009E00222D21A01A98A5C53
:101CD000D9008A4021680A4322600133022BF3DDD8
:101CE000E8E7000010B582B0040000236A46D37113
:101CF000D11D8C2000F0B6F96B46DB790C2B3AD065
:101D0000002C3DD108212A2000F0D8F902212920F9
:101D100000F0D4F9284A0821322000F0C9FB040061
:101D2000831C30D0FF21292000F0F4F92021292044
:101D300000F0C4F9204A0121322000F0B9FB040070
:101D4000831C28D04021292000F0B8F91A4A01212B
:101D5000322000F0ADFB0400831C24D010212E2083
:101D600000F07CFB154B0022DA7400F0D3FA00245B
:101D7000200002B010BD114B0022DA740024F7E7F6
:101D800000F0BCFCBEE7FF21292000F0C3F90B4B9B
:101D90000022DA74ECE7FF21292000F0BBF9074BA1
:101DA0000022DA74E4E7FF21292000F0B3F9034BA5
:101DB0000022DA74DCE7C04688130000C41A002051
:101DC000F0B5C64600B58046264B1B7D002B1BD0C8
:101DD000244C677F002B1AD0224B9B7D9C4600230E
:101DE0000C881D00E618964215DA60467843834257
:101DF00011DA1C4CA069A47F7C4364194546AD5D93
:101E0000055501339BB2EBE7164C277FE2E7154BF4
:101E10005B7D9C46E3E7E3180B803C00390028001B
:101E200003F0D0FC0E1E0DD03900280003F0CAFCD0
:101E3000C3B20133DBB20B4A9377002E08D104BC46
:101E40009046F0BD3900280003F0BCFCC3B2F2E7B5
:101E50009069013B5C43341900193200002104F001
:101E600023FDECE7C41A0020F0B583B006000D0096
:101E70006B460022DA806B465A7101AB40221A7021
:101E8000264B1B7D002B0CD0244A577F002B0BD0F8
:101E9000224B9A7D214B98697A43002104F004FD7E
:101EA0002DE01E4A177FF1E71C4B5A7DF2E76B4687
:101EB0005C1D802323707F212E2000F0FFF8BF21BE
:101EC000322000F0FBF821002E2000F0CBF801A911
:101ED000322000F0C7F86B4605331B785BB2002B4D
:101EE000E5DA01AB1B785B06E1D40C4CA27F7A43A8
:101EF000D2B2A1692D20FFF773FA0023A3776B46B6
:101F000006331B88AB4206D22A006B46991D30006F
:101F1000FFF756FFDFE703B0F0BDC046C41A00204C
:101F200070B5114B1B7D002B0FD00F4A2523D55CBC
:101F30000022002A0DD10D4C2100012000F092F862
:101F4000263C2623E25C6A43F3E7074A2423D55C58
:101F5000EEE7D2B2044B196A2D20FFF7CFF910211A
:101F60002E2000F07BFA70BDC41A0020EA1A00206F
:101F700070B504000E002D4D08220021280004F049
:101F800093FCAC60012C04D0022C47D001204042CD
:101F900043E0264B00225A709A706432DA70234C68
:101FA0000023237026713020FFF7B6FA21793E20F6
:101FB000FFF77EFAC7211420FFF77AFA03211320D6
:101FC000FFF776FAE1780D20FFF772FAA1780E207C
:101FD000FFF76EFA61780F20FFF76AFA21780A207E
:101FE000FFF766FA30211220FFF762FA0021152070
:101FF000FFF75EFA18211820FFF75AFA322108205D
:10200000FFF756FA6F210220FFF752FA3620FFF74A
:1020100083FA3920FFF780FA002070BD034B552268
:102020005A70403A9A705132DA70B8E7F01A0020CC
:1020300010B53620FFF770FA012001F0E7F93520DE
:10204000FFF76AFA10BD10B53620FFF765FA3920A0
:10205000FFF762FA10BD10B5012272215E20FFF772
:1020600089F910BDF8B504000D0043B2002B0BDB5D
:102070000126114B1B78B34208D17F20204001225A
:102080002900FFF73BF9F8BD0226F2E70A4F3E7040
:10209000791C01222B20FFF731F90123FB56012285
:1020A0009343022149423143C9431943C9B279706C
:1020B0002B20FFF75FF9E0E7C41A0020F8B5040011
:1020C0000D0043B2002B0BDB0126114B1B78B342F2
:1020D00008D17F20204001222900FFF74BF9F8BDED
:1020E0000226F2E70A4F3E70791C01222B20FFF7EF
:1020F00005F90123FB560122934302214942314352
:10210000C9431943C9B279702B20FFF733F9E0E7CF
:10211000C41A002070B582B004000D006B46DE1DAD
:102120003100FFF79FFF3178A9432000FFF7C6FF7A
:1021300002B070BD30B583B06B46DC1D0023237048
:102140001A336A469371224804F02CFD01220F21B4
:102150001A20FFF70FF91F4801F058F96B469979DB
:1021600001221620FFF706F90220002101F022F9D2
:102170002578012221001620FFF7C0F80220002157
:1021800001F018F9012229001620FFF7F3F80220C8
:10219000002101F00FF901226B46991D1620FFF76F
:1021A000ADF821781A290AD000231C006A460632AD
:1021B0001278094804F028FD200003B030BD6B46BA
:1021C00006331B78002B01D00023EEE70123ECE758
:1021D000C408011088130000E408011010B50122A2
:1021E000F0211A20FFF7C6F810BD000010B504005A
:1021F00001001920FFF762FF014B1C7110BDC046A2
:10220000C41A002010B5041E00D138342100632008
:10221000FFF754FF014B9C7110BDC046C41A00204B
:1022200010B5040001002520FFF748FF014BDC71C9
:1022300010BDC046C41A002070B5050000240AE095
:10224000E3002900D940C9B220001330C0B2FFF723
:1022500035FF0134E4B2022CF2D9014BDD6070BDD0
:10226000C41A002010B5040001001620FFF726FF55
:10227000014B1C7410BDC046C41A002010B50843A1
:10228000040001001720FFF719FF014B5C7410BD1B
:10229000C41A002070B51E4B1B7D002B2FD11C4B88
:1022A000DB7C002B2ED11A4DA97C1720FFF706FFEF
:1022B000040069791920FFF701FF2418E4B2697F4F
:1022C0000420FFF7FBFE2418E4B22523E95C02207A
:1022D000FFF7F4FE2418E4B2A97D0520FFF7EEFE17
:1022E0002418E4B2297A2520FFF7E8FE2418E4B286
:1022F000062C0AD1064B01221A75002070BD04205D
:102300004042FBE705204042F8E701204042F5E764
:10231000C41A002070B5244B1B7D002B3BD0224BF0
:10232000DB7C002B3AD1204D697C1720FFF7C6FEDD
:10233000040029791920FFF7C1FE2418E4B2297F8F
:102340000420FFF7BBFE2418E4B22423E95C02203A
:10235000FFF7B4FE2418E4B2697D0520FFF7AEFE56
:102360002418E4B2E9792520FFF7A8FE2418E4B286
:1023700010213120FFF7A2FE2418E4B208212A2000
:10238000FFF79CFE2418E4B2082C0AD1064B002269
:102390001A75002070BD03204042FBE70520404233
:1023A000F8E701204042F5E7C41A002070B52A4B37
:1023B000DB7C002B49D100281AD013210220FFF723
:1023C0007DFE040080212520FFF778FE2418E4B26A
:1023D00010213020FFF772FE2418E4B28A212A204F
:1023E000FFF76CFE2018C0B2042831D1002070BD68
:1023F00008212A20FFF762FE0400174B1B7D002BEB
:1024000014D0154D297A2520FFF758FE2418E4B280
:102410002523E95C0220FFF751FE2418E4B21021C5
:102420003120FFF74BFE2018C0B2DDE70A4DE979F5
:102430002520FFF743FE2418E4B22423E95C0220A0
:10244000FFF73CFE2418E4B2E9E705204042CEE75E
:1024500002204042CBE7C046C41A002010B5C94351
:10246000C9B2FFF72BFE10BD10B5002817D002210E
:102470003A20FFF723FE0D212A20FFF71FFE0A2036
:1024800000F0C4FF00212E20FFF718FE00213220AB
:10249000FFF714FE00213820FFF710FE10BD0221C7
:1024A0003A20FFF737FE05212A20FFF733FEE6E743
:1024B000F0B5D6464F4680B585B007000E00914670
:1024C00002AB0022DA7101F03DF804000D1E29DB99
:1024D00001908A46FA22920000234846002104F027
:1024E000DBF824184D41AA4503D805D1019BA3422E
:1024F00002D901246442E517002D19DB02AB073332
:102500001B78334220D101F01DF802000B1E15DBB1
:10251000121BAB41002B22DA02ABD91D3800FFF7AA
:10252000A1FDEBE70F4B104A3D21104801F0FCFBE9
:102530000C4B0D4A3D210D4801F0F6FB094B0A4AB0
:102540003D210A4801F0F0FBF143C9B23800FFF722
:10255000B5FD002005B00CBC91469A46F0BD0220A6
:102560004042F7E780070110180901109C0701108D
:1025700010B502212920FFF7A1FD074A08213220CA
:10258000FFF796FF041E01D0200010BD0021292076
:10259000FFF794FDF8E7C0468813000010B540210E
:1025A0002920FFF78BFD064A01213220FFF780FF2B
:1025B0000400EF212E20FFF781FD200010BDC04652
:1025C0008813000070B5040015001D20FFF776FD8C
:1025D0007F2121401C20FFF771FD094A01212E2097
:1025E000FFF766FF0400831C05D029001E20FFF7BB
:1025F00039FD200070BD0020FFF774FBF9E7C046ED
:1026000010270000F0B583B004000D00160047B29B
:10261000002F14DB7F2020406B46DA1D2900FFF7D6
:10262000D1FF831C09D06B4607331B78AB421DD109
:10263000002E00D03370002F11DB03B0F0BD6B46CD
:10264000DA1D03212220FFF7BDFF831CF5D06B4666
:1026500007331B78032BDDD003204042EDE76B46A8
:10266000DA1D02212220FFF7ADFFE6E703204042FA
:10267000E3E70000F0B583B005000E0047B2002F7D
:102680001BDB802149422943C9B21C20FFF716FDFC
:10269000184A01212E20FFF70BFF0400831C1DD0D8
:1026A00031001E20FFF7DEFC3178134804F0ACFA4D
:1026B000002F17DB200003B0F0BD6B46DA1D0321AD
:1026C0002220FFF77FFF0400831CF3D06B46073303
:1026D0001B78032BD5D003246442EBE70020FFF7DF
:1026E00001FBE5E76B46DA1D02212220FFF76AFFB6
:1026F0000400DFE7102700000809011010B50221CF
:102700001D20FFF7DBFC29211C20FFF7D7FCFA2056
:10271000400000F07BFE10BDF0B583B0384BDB7C91
:10272000002B00D169E0364B1B7D002B1BD0344AB7
:10273000517F6A46D171002B18D0314C2522A45C00
:102740006A469471002B15D02D4B9A7D6B465A71B9
:10275000002822D000220220FFF734FF041E0CD0F4
:10276000200003B0F0BD264A117FE2E7244C24226A
:10277000A45CE5E7224B5A7DE8E76B469979002295
:102780000420FFF71FFF041EEAD16B46597900228F
:102790000520FFF717FF0400E2E76B46D91D022072
:1027A000FFF768FF041EDBD16B46991D0420FFF77D
:1027B00061FF041ED4D16B46591D0520FFF75AFF57
:1027C000041ECDD16B46DF1DD9790420FFF776FCBE
:1027D0006B469E1D99790220FFF770FC6B465D1DCC
:1027E00059790520FFF76AFC054B3A781A7731785A
:1027F000242299542A785A75B2E704246442AFE738
:10280000C41A002010B58300084A944663441C682B
:1028100040226240C02414408022520113431C60B5
:10282000C000034B9C466044416010BD04C00140A1
:102830000040014010B501238340D022120693626C
:1028400093610521FFF7DEFF10BD70B50500002480
:1028500004E02000FFF7EEFF6D0801341F2C02D8C2
:10286000EB07F9D5F5E770BDEFF3108072B6034BB7
:102870001B68002BFBD0BFF35F8F70472C0100D08B
:10288000BFF35F8F024B00221A6080F310887047FD
:102890002C0100D0F8B506000C001500FFF7E4FF8E
:1028A000E308F718F15C07222240012393400B4212
:1028B00005D1DBB20B433B70FFF7E2FFF8BD21000F
:1028C000280001F04FFAF0B583B006000191140022
:1028D0001F00FFF7C9FFBC420ED8E308F518F35CF0
:1028E0000721214001228A401A4201D00134F2E737
:1028F000D2B21A432A7001E001246442FFF7C0FFFC
:10290000002C02DB200003B0F0BD019B002BF9D0AE
:10291000089801F027FA0000034B1B6802201840BA
:10292000431E9841C0B2704700C0064000231F2BD1
:1029300008D8054A9A189200BFF35F8F00211160F2
:102940000133F4E77047C04640000034054A107870
:10295000431CDBB21370172B02D9130010221A701C
:102960007047C0464005002000B583B00100044B0D
:1029700000931F2318220348FFF7A5FF03B000BDF3
:1029800030090110D015002070B505000C000800BA
:1029900000F0CCFD200000F0D3FE0849200000F03C
:1029A00013FEFFF7D3FF064B9C466044800068602F
:1029B0002C75A400034BE55070BDC046CD2C001013
:1029C00040000034781A00200A4B1A68EFF3108197
:1029D00072B61368002BFCD0BFF35F8F054B1B68EA
:1029E000BFF35F8F00221A6081F3108840BF002080
:1029F00000217047901A002010B5002922D00368EA
:102A00001B7B99421ED8174B9C4661440901836881
:102A10009C4661440C684968002A19D003681B7BF6
:102A20009A4215D883680F488446624412019A1866
:102A300010685368020001208B4201D80ED000209C
:102A4000C0B210BD084B094A3B21094801F06CF99E
:102A5000054B064A3B21064801F066F9A242EFD831
:102A6000EDE7C046FFFFFF0F98090110040C0110AD
:102A70006009011010B500291ED0037B99421BD8B4
:102A80004B005B18033B0468A4466344002919D03B
:102A9000002A1DD0914221D0002A25D0047BA242D9
:102AA00022D80468500080180338201881701978E3
:102AB00000291FD11A7010BD104B114A692111480D
:102AC00001F032F9104B114A70310E4801F02CF927
:102AD0000F4B0E4A71210B4801F026F90D4B0B4AA2
:102AE0007221084801F020F9044B054A6921054884
:102AF00001F01AF941701A70DDE7C046CC090110E7
:102B0000C40B0110E8090110340A0110D00B0110A8
:102B1000400A01104C0A011070B506000D001400A7
:102B2000002914D0002A14D08068736898470028C0
:102B300006D0220029003000FFF79CFF280007E0A4
:102B40002A0021003000FFF795FF200000E0100070
:102B500070BD0800FCE70000F0B583B005000092EE
:102B600001930AAB1C780BAB1F78002C26D00368AE
:102B70005A7B944207D10123002B19D1002C3BD161
:102B8000200003B0F0BD002C0CD01A7B944209D871
:102B90001A6863001B19033BD3189B78002BEBD0FA
:102BA0000123E9E73E4B3F4A69213F4801F0BCF869
:102BB0003E4B3F4A65213F4801F0B6F803689C7BD5
:102BC000002CDBD012D01A7B94420FD8620012196D
:102BD000033A19688C46624451789973002900D1F0
:102BE000D9730023937053701370C7E72C4B2D4A91
:102BF00069212D4801F098F8002C3AD02B681B7BF6
:102C00009C4236D82C4BE3181B01AA6894466344B7
:102C1000009A1A60019A5A60089A9A60099ADA60D2
:102C20002E68002C2BD030D0337B9C422DD86300F3
:102C30001B19033B32689446634400229A705A7011
:102C40001A70717B22003000FFF766FF70738442B8
:102C500000D095E7287D009A019B00F0FDFC061E40
:102C600001D0002F17D00C9B002B00D188E71E70DD
:102C700086E7124B124A3B210E4801F055F8114BE2
:102C8000114AA621084801F04FF8054B054A692171
:102C9000054801F049F82868210000F03BFFE2E711
:102CA000CC090110C40B0110E8090110640A0110DD
:102CB0003C0C011060090110FFFFFF0F9809011083
:102CC000040C01105C090110E40B0110F0B5DE46A4
:102CD00057464E464546E0B58BB009900023089311
:102CE0008200B34BD658370052E0B24BB24A3D2176
:102CF000B24801F019F8B24BB24A3B21B24801F098
:102D000013F8002901D1002869D10021404600F0C4
:102D1000F7FEA04219D12A686B6806920793AB6848
:102D20009846EB689A464346002B14D0002C18D0E6
:102D30003B681B7B9C4214D8631EFA68D35C0893E3
:102D40001B0218433861002015E0A04BA04A8C21DB
:102D50009D4800F0E9FF9F4B9D4A90219A4800F062
:102D6000E3FF974B9C4A4021974800F0DDFF00238A
:102D70009A46984600207B68BFF35F8F00221A6056
:102D800086F310884346002B32D1002800D107E19A
:102D900000F0D8FB02000B1EA7DB002000210690EC
:102DA00007917868EFF3108672B601680029FCD0AD
:102DB000BFF35F8F396888464C7B002CD7D09AD000
:102DC000097B8C4297D8854965182D01B9688C46D6
:102DD000654428686968801A9941002991DD2A684C
:102DE0006B68099800F038FC00239A469846C2E7C1
:102DF000089B1B022343994651461800C047050013
:102E00000E007A68EFF3108B72B6136859424B418B
:102E1000D9B2002BF9D1BFF35F8F002E26DB002E35
:102E200052DD3B69002B53D04B4572D100F08AFB39
:102E300002000B1E73DB0100180052197341984207
:102E400002D804D1914202D901225242D317002B59
:102E50006BDB0021049101310391029451460191F1
:102E6000414600913800FFF777FE49E03B69002BAF
:102E7000D5D04B451CD1069A079B10001900521B58
:102E8000B341994202D804D1904202D90122524260
:102E9000D317002B12DB002104910131039102941E
:102EA00051460191414600913800FFF755FE27E059
:102EB0004B4B474A9F21444800F036FF3D4B3E4A6A
:102EC0003D213E4800F030FF002E01D1002DA8D159
:102ED0003A68002C45D0537B9C422CD1012100291B
:102EE0003FD1D37B002B42D1D473002C52D03B680E
:102EF0001B7B9C424ED8FA68013C135D013313558D
:102F000000233B617A68BFF35F8F13608BF31088F7
:102F10003EE7334B2E4AA2212B4800F005FF254BFC
:102F2000254A3D21254800F0FFFE224B224A3D2143
:102F3000224800F0F9FE002C0DD0137B9C420AD8E9
:102F400063001B19033B1068844663449B78002B85
:102F5000C5D00121C3E7234B234A6921234800F050
:102F6000E3FE234B234AF721204800F0DDFE002B2F
:102F70000AD0117B8B4207D85900CB18033B11684C
:102F80008C4663445C70AFE7164B174A69211748BB
:102F900000F0CAFE0A4B104A40210B4800F0C4FE64
:102FA0000BB03CBC90469946A246AB46F0BDC0462D
:102FB000781A002080070110AC0B01109C0701104B
:102FC00098090110040C0110600901108C0A01100D
:102FD000540C0110A40A0110100C0110FFFFFF0F88
:102FE000B00A0110CC090110C40B0110E80901104E
:102FF000EC0A0110F40B011010B50A4B5B68002BB2
:1030000004D00A21084800F0BBFB10BD054C23008A
:10301000064A1021206800F093FC03212000FFF7EE
:10302000B3FCEEE744050020901A0020F9290010B7
:1030300010B5064B5B68002B01D0044810BD044B53
:10304000044A5C21044800F06FFEC046440500209D
:10305000100B0110240C011060090110F0B5DE46C0
:1030600057464E464546E0B58BB0804616001F00D9
:10307000149B9A46159B994616AB1B789B461F23BB
:1030800002AA9446634400221A7032E0002809D054
:1030900042461268127B904204D8421E4146C968DB
:1030A0008A5C48E0434B444A4021444800F03CFEDF
:1030B0000798002B75D05B46002B72D04946D0474D
:1030C00004000D0003000B4300D171E0002946DB32
:1030D00000F038FA06000F1E55DB36196F41B94271
:1030E00002D804D1B04202D901267642F717002F48
:1030F0004FDB43465A68EFF3108472B613685942A7
:103100004B41D9B20791002BF8D1BFF35F8F1F332A
:1031100002AA9446634404930023039302934B460C
:1031200001935346009332003B004046FFF714FDE5
:10313000031EABD1020041464968BFF35F8F0025F3
:103140000D6084F31088002B29D01F2302A98C4620
:1031500063441B78002BABD112021043A9E7320065
:103160003B00361BAF41BB4202D804D1B24202D968
:1031700001267642F717002FBBDA114B114A3D2189
:10318000114800F0D1FD0E4B0E4A3D210E4800F0D3
:10319000CBFD0B4B0B4A3D210B4800F0C5FD012038
:1031A00040420BB03CBC90469946A246AB46F0BDAF
:1031B0000798F6E798090110100C0110600901103A
:1031C00080070110AC0B01109C070110F8B504003A
:1031D0004268EFF3108572B6136858424341D8B283
:1031E000002BF9D1BFF35F8FCBB22268567BB3427D
:1031F0001BD10120002847D0206988422BD0090A22
:10320000C9B2002B2DD02068007B834229D8581EDC
:10321000E668305C88422AD000206368BFF35F8F85
:1032200000221A6085F31088F8BD002B0DD0167BA4
:10323000B3420AD85E00F618033E1768BC466644DF
:10324000B678002ED6D00120D4E7124B124A69215D
:10325000124800F069FD124B124AFE21124800F09C
:1032600063FD124B124A40210F4800F05DFD19002A
:10327000100000F04FFC0028CFD106210D4B094A69
:10328000FF31094800F050FD23698B42C5D100236E
:103290002361C2E7CC090110C40B0110E809011039
:1032A000340B0110700C0110600901109809011015
:1032B000100C0110580B0110F0B587B006000F007C
:1032C000FCF7D1FF00281FD106246442E517A4199A
:1032D0007D41BD4202D803D1B44201D9002400256A
:1032E000002D14DB0494059500F02CF902000B1E50
:1032F00013DBA41A9D41002D17DC14D030003900D7
:1033000000F02CF907B0F0BD234800F02BFD234B53
:10331000234A3D21234800F007FD204B204A3D2150
:10332000204800F001FD002CE8D0FFF781FE0023CB
:10333000029301931C4B0093049A059BFFF78EFEAA
:10334000002818DADAE7002300E00023002BD5D1AB
:10335000164B1A68EFF3108172B61368002BFCD07D
:10336000BFF35F8F114B1B68BFF35F8F00221A60A2
:1033700081F3108820BF0499059A0D4B5B6A9A422D
:10338000E3D80B48806A884203D29A42DBD00123FB
:10339000DCE70123DAE7C0465C0B0110800701106F
:1033A000AC0B01109C070110C9290010901A0020D5
:1033B00000400540F8B504000D0000F0C3F802001D
:1033C0000B1E10DB20002900801859418B4202D8C7
:1033D00004D1824202D901204042C117002908DBF2
:1033E000FFF76AFFF8BD064B064A3D21064800F08C
:1033F0009BFC034B034A3D21034800F095FCC0466B
:1034000080070110AC0B01109C07011010B5FA22C7
:1034100092000023002103F03FF9FFF7CBFF10BD1E
:1034200070B584B005000C00FFF702FE0023029384
:103430000193194B00932A002300FFF70FFE061E8D
:1034400012DC164B5B6A9C4209D8144A926AAA4263
:1034500008D29C4201D0012002E0002000E00020C0
:1034600004B070BD0120FBE720BFFFF7E1FD310094
:10347000FFF7ACFE094B5B6A9C4209D8074A926A87
:10348000AA4207D29C4201D00120E9E70020E7E7E9
:103490000020E5E70120E3E7C929001000400540CE
:1034A00070B5EFF305833F2018401038EFF3108418
:1034B00072B6194B1B68002BFBD0BFF35F8F012343
:1034C00019008140154A5163154A12781500C5400C
:1034D0002B4214D0114B5D6A8300124E9B599D42C2
:1034E00006D38300104D5B598A430D490A7007E0EB
:1034F0000A4A031D9B0099589950002300E00023BD
:10350000BFF35F8F044A0021116084F31088002B01
:1035100000D0984770BDC046280100D0004005404B
:10352000C31A00209C1A0020C014002010B501000E
:10353000024A0348FFF7AEF910BDC046900C0110D7
:10354000C01A0020044B5B6A034A906A1900536A50
:103550009942F9D17047C04600400540074B5B6A6D
:103560008B4204D2054B5B6AFAE7044B5B6A8B42E1
:1035700003D1024B9B6A8342F7D37047004005405A
:1035800070B504000D00FFF7DDFF02000B00200006
:103590002900801859418B4202D804D1824202D9B5
:1035A00001204042C117002902DBFFF7D7FF70BDA1
:1035B000024B034A3D21034800F0B6FB800701108F
:1035C0001C0D01109C07011070B504000D00EFF3F5
:1035D000108672B61B4B1B68002BFBD0BFF35F8FAE
:1035E000002D1CD0200000F057FD174B83420BD05C
:1035F0001900200000F058FD0121200000F03CFDE2
:103600000123A340114A1360A400114BE550BFF3FE
:103610005F8F0C4B00221A6086F3108870BDA200E9
:103620000B4B0021D1500122A2400A490B78934351
:103630000B700549200000F061FD0021200000F022
:103640001BFDE4E7280100D0A134001038600540DC
:10365000C0140020C31A0020F0B5DE4600B584B0C7
:103660000400150001921E000293FFF76BFF039503
:103670008E4202D84ED185424CD9EFF3108B72B6F0
:10368000274B1B68002BFBD0BFF35F8F254A1778B1
:103690000125A540EBB23B431370234B5D63221D14
:1036A00092000199D150A2002049029850501B6A03
:1036B0002B4212D11C4B1B6C2B4208D00020BFF3B5
:1036C0005F8F174B00221A608BF3108823E0184B92
:1036D000184AC121184800F027FBFFF733FF8E423C
:1036E00014D802D1039B834210D80E4B1B78BB42E7
:1036F0000ED00D4B1D625D631F2004400123A340CB
:103700000E4A1360074B1F701E38D8E70020D6E71B
:103710000120D4E7012004B004BC9346F0BDC046AC
:10372000280100D0C31A0020004005409C1A002048
:10373000B40C0110340D0110D80C011080E200E02F
:1037400010B5EFF3108472B60A4B1B68002BFBD048
:10375000BFF35F8F01238340074A136207490A784A
:103760009A430A70BFF35F8F024B00221A6084F302
:10377000108810BD280100D000400540C31A002069
:10378000024B9C4661448900016070474000003450
:1037900070B504000D00FFF7D9F801002000FFF715
:1037A000EFFFFF2323716571BFF35F8F70BD10B50D
:1037B0000021FFF7EDFF10BD10B5FF21FFF7E8FF77
:1037C00010BD0000034B9C46614489000160BFF3BB
:1037D0005F8F70474000003410B504000120FFF7F0
:1037E000C3F801002000FFF7EDFF10BD10B5002960
:1037F0001ED0037B99421BD84B005B18033B046827
:10380000A4466344002919D0002A1DD0914221D03A
:10381000002A25D0047BA24222D8046850008018D8
:10382000033820188170197800291FD11A7010BD33
:10383000104B114A6921114800F076FA104B114AD9
:1038400070310E4800F070FA0F4B0E4A71210B4890
:1038500000F06AFA0D4B0B4A7221084800F064FA36
:10386000044B054A6921054800F05EFA41701A7060
:10387000DDE7C046CC0901100C0F0110E80901106A
:10388000340A0110180F0110400A01104C0A0110EF
:1038900070B506000D001400002914D0002A14D0C1
:1038A000806873689847002806D0220029003000FD
:1038B000FFF79CFF280007E02A0021003000FFF7F7
:1038C00095FF200000E0100070BD0800FCE700003C
:1038D00010B50023437301338373037BC373012348
:1038E000027B9A4214D9002B0CD0027B934209D858
:1038F0005A00D218033A01688C4662440133DBB2A5
:103900005370EDE70B4B0C4A69210C4800F00CFAA0
:10391000002A09D0924207D8016853009A18033A46
:103920008A180023537010BD024B034A69210348D3
:1039300000F0FAF9CC0901100C0F0110E809011090
:1039400010B5017342608360FFF7C2FF10BD000035
:1039500070B50400081E00D170BD002934D0237B4F
:10396000994231D84B005B18033B2268944663446C
:103970005A78002AF0D02DD0237B9A422AD85300BF
:103980009B18033B21688C4663445D780021597085
:10399000002825D0237B984222D843001B18033BE4
:1039A00021688C4663440021597001002000FFF714
:1039B0006FFF060029002000FFF7CAFF0200310058
:1039C0002000FFF765FFC7E7084B094A692109484E
:1039D00000F0AAF9054B064A6921064800F0A4F94F
:1039E000024B034A6921034800F09EF9CC090110FB
:1039F0000C0F0110E809011070B505000C0016004D
:103A0000002928D02DD0037B99422AD84B005B187F
:103A1000033B0268944663445A78002A27D19A7877
:103A2000002A2AD11978FFF793FF0300002E03D054
:103A3000EA7B002A27D1EC73002B37D1002C49D028
:103A40002B7B9C4246D82B6861000C19033C1C1947
:103A50000023637070BD224B224A3821224800F0B7
:103A600063F9224B224A6921224800F05DF9224B7A
:103A70001C4A3A211C4800F057F9204B194A3B21B7
:103A8000194800F051F9002A0AD0297B8A4207D848
:103A900051008A18033A29688C4662445470CAE778
:103AA000124B134A6921134800F03EF9002B0BD04A
:103AB0002A7B934208D843001B18033B2A6894468C
:103AC000634400229A70B9E7084B094A6921094802
:103AD00000F02AF9054B064A6921064800F024F94E
:103AE000580E01102C0F0110600E0110CC090110AE
:103AF0000C0F0110E8090110980E0110C00E011002
:103B000070B504000A00457B2900FFF775FF60735C
:103B1000280070BD70B50400002966D0437B8B423D
:103B20000ED0002911D0037B99420ED84B005B18B0
:103B3000033B0268D0188378002B0CD1002055E09D
:103B40000121FFF7DDFF012050E0294B294A6921BF
:103B5000294800F0E9F8002B1FD0227B93421CD8A3
:103B600025685A00D318033BEA18EB5C8B421AD045
:103B7000002B1BD0227B934218D85A00D318033B4A
:103B80002268D21853788B4216D0002BF0D11B4BF1
:103B90001B4A67211B4800F0C7F8154B154A6921DD
:103BA000154800F0C1F84378137007E0104B114A34
:103BB0006921114800F0B8F84378537000238370EE
:103BC000437001222000FFF717FF0200617B814252
:103BD00005D02000FFF75CFE6073012006E00A4B71
:103BE000074A6D21074800F09FF8002070BDC046CD
:103BF000CC0901100C0F0110E8090110E40E0110AE
:103C0000400F0110600E0110EC0E011070B5264B34
:103C1000264A1A60264B274A1A60274B9A68254B7A
:103C20009343FAD1254C264B9C4202D208CC9847AC
:103C3000F9E700F031F91E4B224A1A601E4B9B68CF
:103C4000DB43DB01FAD1204B40229A675A671A679F
:103C5000DA661E4C03E02000FFF7A9FD08341C4B78
:103C60009C4206D26379002BF5D02000FFF7A4FD1B
:103C7000F4E7184CA168184DC022280002F01AFE83
:103C8000A560FCF7F0FA002800D000BEFEF74EFE5B
:103C900000F096FBFFF7B0F9104C01E008CC984714
:103CA0000F4B9C42FAD370BD00E00040BFCDFBFE3D
:103CB00000F00040FE7F3C0000C00040D80F002014
:103CC000E80F0020FFFFFF0100F00140D00F0020AF
:103CD000D80F002000ED00E000000020E80F0020D9
:103CE000F00F002000BEFDE703000A4A1268002A18
:103CF00008D0084A1068C318074A9A4206D3054AF2
:103D000013607047034A05491160F2E70120404201
:103D1000F7E7C0466C16002000000420C41D0020F8
:103D200010B5FFF7DFFF000010B582B00C001900DE
:103D3000002A0CD0084B002A0BD0019200932300DC
:103D40000200064802F060FF0120FFF7CBFF044BA2
:103D5000F1E7034AF1E7C046580F0110680F011060
:103D60003C0801100FB400B583B0084802F01AFFF8
:103D7000049B002B07D005A90191180002F020FF39
:103D8000034802F00FFF0120FFF7ACFF980F01106E
:103D900044FF0010F8B5DE4657464E464546E0B5AE
:103DA00005000F0092461E000A9B9E424ED3330E22
:103DB000994636020A9A00233000494601F06CFD0C
:103DC00080466C006419A4002E4B9C4664446368D2
:103DD000834200D260602B1FDBB29B46012B3BD994
:103DE000C0239B012343802212011A60AB00264AA4
:103DF0009958002905D0506901F00CFD01300138B7
:103E0000FDD153465A0123685A40E0231A408023CB
:103E10005B0123431A605A46012A28D980239B015B
:103E20002343802212011A60434663604246002306
:103E30003000494601F030FDAD00134B58510120D0
:103E40003CBC90469946A246AB46F8BD0F4B104A83
:103E50002D211048FFF768FF012FC1D1C0239B011E
:103E6000234303221A60A368DB07FCD5C9E7216856
:103E7000794003220A401A60A3680122BA401A421C
:103E8000FAD0CBE700800040D4150020A80F011025
:103E900000100110BC0F011030B583B00C2000F0F1
:103EA00027FBFEF739FD00280DD00023092B05D88C
:103EB00099002D4A2D4888500133F7E72A4B2C4AA8
:103EC0005A6203B030BD2B4B00229A6700F07EFB94
:103ED000294B01221A60274B5B6C012BFBD1274B2E
:103EE00003221A60234B9B6B012BFBD1022400940D
:103EF0000533234A0121234800F06EFA009405237C
:103F0000214A0121214800F067FA214B0093002249
:103F100002210420FFF73EFF1E4D00952B000022DA
:103F200001210520FFF736FF104C009423000022EA
:103F300000210720FFF72EFF00942300002200211C
:103F40000820FFF727FF0A4B0093230000220021DF
:103F50000920FFF71FFF00952B00002200210620FB
:103F6000FFF718FFADE7C046D4150020006CDC0257
:103F70001BB70000008000403CB0004030B0004063
:103F8000002F68590080024000389C1C00C002408D
:103F9000001BB700405973078000014BC0587047A1
:103FA000D4150020074B9B68103080001950BFF3D8
:103FB0005F8FBFF35F8F044B0021196082F310887D
:103FC0007047C04600ED00E0240100D010B5091A8A
:103FD00004394808090B05D14005400D044B18432E
:103FE00080B210BD034B044A8C210448FFF79CFEAD
:103FF00000E0FFFF10100110F0110110201001105F
:1040000010B5091A04394C08090B08D14905490DA6
:10401000064A11430180064B2343438010BD054BE4
:10402000054A94210548FFF77FFEC04600F0FFFFD8
:1040300000F8FFFF10100110FC11011020100110FA
:1040400001238340034A10681840431E9841C0B2C0
:104050007047C04600E100E0002904D0034B18601F
:10406000034B18607047034B1860FBE780E200E0E9
:1040700000E100E080E100E010B50123834018007A
:10408000FFF7EAFF10BD000001238340014A1360DF
:104090007047C04600E200E0024B9B681030800091
:1040A000C058704700ED00E070B504000D00EFF35C
:1040B000108672B60C4B1B68002BFBD0BFF35F8FD2
:1040C0002000FFF7E9FF094B984201D0A84205D133
:1040D000320029002000FFF765FF70BD044B054A40
:1040E00070210548FFF720FE240100D0CD0100100B
:1040F00060100110D411011020100110F0B5CE464F
:10410000474680B583B006000D00EFF3108872B605
:10411000574B1B68002BFBD0BFF35F8F554B9A6842
:1041200034001034A300D758534B9F4207D0AF42FE
:1041300000D19BE00197514BFB1A2F2B09D9424626
:1041400039003000FFF72EFF03B00CBC90469946B3
:10415000F0BD3000FFF774FF814600213000FFF70B
:104160008BFFBFF35F8FFCF77EF8002801D08442FD
:1041700019D10123019C9C43230040495B1A5B41F8
:1041800048495943090D49B20022A368AB4212D0F5
:104190000622A256002A0DDB53009B189B0022002A
:1041A000364CE418F1E72021354B364AFF313648CA
:1041B000FFF7BAFD2200AB4251D106256557002D0D
:1041C00039DB6B005B199A002C4B9B189A68A26034
:1041D000DA79E27106229A56A2719B795BB2002BC2
:1041E00010DABD200002A0806B005B199B00234AFF
:1041F000D318264A11789971157049463000FFF797
:104200003BFF9CE7201D6B005B199B001B4A9B1822
:104210001A1D9B88D90A1C2907D159054915023155
:1042200049005118FFF7D2FEDDE7194B194A9A21D0
:104230001548FFF779FD00280CD1002A08D0FF238C
:104240009371154B9380114B1A78A2711970D4E7B2
:10425000094FF8E7201D1149FFF7D2FECDE7AA214B
:104260000F4B084A49000848FFF75EFD024F66E71A
:10427000240100D000ED00E0CD0100106C0500200D
:10428000741101102412011020100110C11A002015
:104290005C1101101412011000BDFFFFA6050020E3
:1042A00098110110AAAA000010B5032304009C4332
:1042B000064A9446644422681840C000FC33834098
:1042C0009A43130081400B43236010BD00E400E0DB
:1042D000F8B50400012606432D4BF31A2F2B28D8DE
:1042E000FBF7C1FF00282BD0EFF3108772B6294BE4
:1042F0001B68002BFBD0BFF35F8F2300244D5B1B9B
:104300005B412E4D5D432D0D6DB2234B9B688000AC
:104310001B58B3421BD00022032A32D853009B18EB
:104320009B001B49CB189B795BB2AB421FD001327B
:10433000F2E77221194B1A4AFF311A48FFF7F4FCD1
:10434000BA21194B164A49001648FFF7EDFC124BEB
:104350009B68164A1A50164B1A78A2711D70BFF34B
:104360005F8F0C4B00221A6087F31088F8BD08009D
:104370005300991889004118FF268E710D4A8A80D2
:10438000E9E786210C4B064AFF310648FFF7CCFCD3
:104390006C050020240100D000ED00E0A011011008
:1043A0003812011020100110C8110110CD010010A9
:1043B000C11A002000BDFFFFE40E0110AAAA0000F0
:1043C00010B500241F2C05D880212000FFF76CFFBA
:1043D0000134F7E710BD0000F0B5CE4600B504008B
:1043E0000E0091461F000C2001F014FA0500430155
:1043F0001B1A9901C91AC90009188901484601F018
:1044000009FA0200103A98235B009A4233D87B1EC7
:10441000062B36D8069B013B062B32D8069B9F42C3
:1044200035D34B461A09AA4237D33F04069B1D03D6
:104430002F432368002B36DB234B9C4241D0802541
:104440006D01224B1D60224B1D60224A92682B0099
:104450009343FAD12660A060221DC0239B01134321
:1044600021221A602268002AFCDAE76008221A601A
:1044700004BC9146F0BD184B184A16211848FFF7A6
:1044800053FC184B154A19211548FFF74DFC164BE4
:10449000124A1F211248FFF747FC144B0F4A2221F2
:1044A0000F48FFF741FC22683F231340B342C3D1BA
:1044B000A3681B051B0D8342BED1E368002FBBD14F
:1044C000D6E78025AD01BCE700C0024000E0004017
:1044D00000F0004000C000405412011030130110E1
:1044E00070120110B0120110FC120110141301100F
:1044F00080239B000343014AD3627047008005403C
:10450000024B1A68024B5A607047C046701A00206E
:104510000080054010B50200144B8020C0051860D3
:10452000134B1448186000291BD0134BE021C90419
:104530001960002A00D132325001801A80008018A0
:1045400000010E4B186080235B04984202D30B4B92
:104550000B4A1A60FFF7D4FF074B8022D2051A607E
:1045600010BD024BE021C9041960E2E700B005402C
:1045700008200140FCFF010000A00540701A002047
:10458000FFFFFF0010B5030010000C4A8024E40573
:104590001460002B0DD001221343094A094CD46149
:1045A000094C5C401462516293620021FFF7B2FF34
:1045B00010BD034B0022DA61F7E7C04600B00540AA
:1045C00000800540D3C007B02D3FF84F064BAA220C
:1045D00012011A602F22DA60044B054A1A60024B5E
:1045E0005B68002BFBDA704700400240006002402D
:1045F00000B0FA009A4200D288547047704710B554
:10460000002802D00B684968984710BD01000020BF
:104610000A681378303BDBB2092B08D883001B18DB
:104620005B00501C08601078C0183038F0E7704705
:10463000F0B5DE4657464E464546E0B583B0934654
:104640001F000C9B9A460D9C0E9B99460F9B9B0747
:1046500003D0B8460F00060022E00192A346884628
:104660004E46B9460700B44207D2551C4B46414658
:104670002020B84701342A00F5E73D004F465C464C
:10468000019B9B46B1464646B84637002E0007E0E0
:10469000013C551C5346185D43463900B0472A007B
:1046A000002CF5D135003E0047460F9B9B0707D4F1
:1046B000100003B03CBC90469946A246AB46F0BD04
:1046C000B0464E46B9462F005D46531BB342EFD26B
:1046D000541C4B4641462020B8472200F5E7F0B570
:1046E000CE46474680B585B0944698460C9D0D9CB5
:1046F0000EAB1B789946109A119B129EB7071BD4DC
:10470000002B08D0F70706D54F46002F02D10C37F3
:10471000374200D0013B944208D21F2C06D83027E4
:104720002F550134F7E730272F550134F70703D50C
:104730009C4201D21F2CF6D9F70615D5770505D472
:10474000002C03D0944224D09C4222D00F9A102AED
:104750002BD00F9A102A30D00F9A022A35D01F2C56
:1047600002D830222A5501341F2C05D84A46002A87
:1047700031D02D222A5501340396029301940095DD
:1047800043466246FFF754FF05B00CBC904699467D
:10479000F0BD621E012C06D00F9F102F01D0140017
:1047A000D4E7023CD2E71400D0E7B206D1D41F2CE4
:1047B000CFD878222A550134D1E7B206CCD51F2CA8
:1047C000CAD858222A550134C9E71F2CC7D86032ED
:1047D0002A550134C3E7720703D52B222A55013429
:1047E000CAE73207C8D520222A550134C4E7F0B5FC
:1047F000DE4657464E464546E0B593B081468A466A
:10480000089209931CAB10CB1B789B461E9D219BE5
:104810009846002C03D1102342469A4390468023A9
:10482000DB0046461E4042461A4212D0002C22D0DF
:1048300000260EE03033D9B2771C0AAB9955290017
:10484000200000F0E7FFAC4216D31F2F14D83E0023
:1048500004002900200000F0DDFFCBB2092BE9D9CC
:104860004246920605D54121C918C9B20A39C9B2D2
:10487000E2E76121F8E7270043460693209B059372
:104880001F9B049303955B46029301970AAB009329
:10489000099B089A51464846FFF721FF13B03CBCDC
:1048A00090469946A246AB46F0BDF0B5DE46574667
:1048B0004E464546E0B595B0089009910A920B9393
:1048C0001E9E1F9C20AB1B789B46229B9946239DD6
:1048D000269B9A463300234303D1103352469A4312
:1048E00092468023DB0057461F4052461A4219D099
:1048F000330023432DD0002714E03033DAB27B1C81
:1049000098460CABDA554A462B003000210000F0E7
:10491000C3FFA5421FD819D043461F2B1BD84746BB
:1049200006000C004A462B003000210000F0B4FFC6
:10493000D3B2092BE1D95246920605D54122D218AD
:10494000D2B20A3AD2B2DAE76122F8E7B145E3D946
:1049500001E00023984653460693259B0593249B2C
:1049600004934B4603935B460293434601930CAB7F
:1049700000930B9B0A9A09990898FFF7B0FE15B0AF
:104980003CBC90469946A246AB46F0BDF0B5DE462B
:1049900057464E464546E0B591B083468A460C924E
:1049A00098461A9C08941B9D099522002B00200014
:1049B000290001F006FA002800D0E5E00122524269
:1049C000D34B2000290001F0F7F9002800D0DBE0EC
:1049D00001225242CF4B2000290001F0D7F90028D4
:1049E00000D0D1E000220023089D2800099E31005C
:1049F00001F0CCF9002800D0DDE008980999069074
:104A000007918023DB001E9A1A400D921E9A1A42CB
:104A100001D106231C930698079904000D000A0093
:104A20000600024300D1CDE0080D4005400DBA4C10
:104A3000A44660440A03120BB84B13431F0001F055
:104A4000D3F9B74AB74B01F056F9B74AB74B01F063
:104A50002BF904000D000022B54B3000390001F0A5
:104A60001AF9B44AB44B01F046F902000B002000D9
:104A7000290001F019F901F0CFF9814601F0B4F9EC
:104A800004000D00AD4AAE4B01F035F90022AD4BEC
:104A900001F00AF901F0C0F90600AB4AAB4B200067
:104AA000290001F028F904000D00300001F09CF904
:104AB000A74AA84B01F01FF902000B0020002900B3
:104AC00001F0E9F804000D0002000B0001F013F9F9
:104AD0000A900B91A04BF31800261F0522002B0013
:104AE0002000290001F0E0F80E900F9122002B0029
:104AF00000208021C90501F0CEF804000D0000223D
:104B0000964B0A980B9901F0D8F80022944B01F0CB
:104B1000CBF802000B000A980B9901F0CEF80022A6
:104B2000904B01F0C1F802000B000A980B9901F0BC
:104B3000C4F802000B002000290001F0B5F80200C3
:104B40000B000E980F9901F0B8F80022734B01F09A
:104B5000ABF832003B0001F0CEF806000F00040075
:104B60000D00069A079B01F027F900282CD001239D
:104B70005B429C46E1440022794B3000390001F051
:104B80009CF804000D001FE01E9B04931D9B0393E3
:104B90001C9B0293089A099B0092019343460C9A2E
:104BA0005146584600F0F8F811B03CBC9046994682
:104BB000A246AB46F0BD069580231B069C46664484
:104BC00007961EE7002399464B466333C62B1FD832
:104BD00004261E9B1B0527D52B00234310D0624AB9
:104BE000624B0698079901F0DFF8002800D183E0B6
:104BF00000225F4B0698079901F0C8F800287BD087
:104C00001C9B4B4506DD4A46981A431E1C9303E045
:104C10000526DEE700231C938023DB001E9A1A433F
:104C20001E920026002399461D9B9E426ED29F1B1A
:104C300002231E9A1A400A921E9A134202D0002E94
:104C400000D000274B46002B07D022002B000698EF
:104C5000079901F032F80690079100220023089886
:104C6000099901F093F8002800D085E0414B1E9A85
:104C70001340049303971C9B0293069B079C00938D
:104C8000019443460C9A5146584600F085F8002E90
:104C900000D189E71E9B9B067AD54525441C4346D7
:104CA000020051462800D8474B46DA179B1853405C
:104CB00005220592013E0496002203920A320292D6
:104CC0004A46D00F01900093434622005146584671
:104CD000FFF78DFD0A9B002B00D165E702005F46C0
:104CE0000C9E1D9D931BAB4254D2541C434651460F
:104CF0002020B8472200F5E71C9B002B94D00D9B89
:104D0000002B91D01C9B013B1C938DE700278FE764
:104D1000FFFFEF7FFFFFEFFF01FCFFFF0000F03F11
:104D2000FB799F501344D33FB3C8608B288AC63F9A
:104D30000000F83F61436F63A787D23F71A37909F1
:104D40004F930A400000E03F1655B5BBB16B0240DF
:104D5000EF39FAFE422EE63FFF03000000002C4030
:104D600000002440000018402D431CEBE2361A3F9F
:104D700080842E41FFF7FFFF069C079D220029003B
:104D800080200006844661440B00069207936DE77D
:104D9000652583E7100007E7F0B5DE4657464E4627
:104DA0004546E0B595B00690079193469946209FF9
:104DB0001E9A1F9B1000190001F003F8002831D142
:104DC00001225242BF4B1E981F9900F0DFFF0028BE
:104DD00037D101225242BC4B1E981F9900F0ECFFC4
:104DE00000283DD10022B94B1E981F9900F0E4FF26
:104DF000002850D10022B64B1E981F9900F0C6FF24
:104E0000002848D1002200231E981F9900F0BEFF01
:104E1000002850D100239846229B5B0500D4B6E0C1
:104E2000002458E0229B0393219B029303230193C8
:104E3000A84B00934B465A4607990698FFF7F8FB94
:104E40000EE1229B0393219B029304230193A24B27
:104E500000934B465A4607990698FFF7E9FBFFE097
:104E60000423229A1A4022990B4210D09B4B002A0D
:104E70000FD004222299039121990291019200936B
:104E80004B465A4607990698FFF7D2FBE8E0944B49
:104E9000EDE70322EEE7229B0493219B0393029705
:104EA0001E9B1F9C009301944B465A4607990698F7
:104EB000FFF76CFDD4E01E9A1F9B0020002100F03C
:104EC000EAFE1E901F9101239846A5E70CAB302205
:104ED0001A55013F01341F2C01D8092FF6D81E980E
:104EE0001F9900F099FF050000F07EFF02000B0003
:104EF0001E981F9900F0CFFEFA007A4B9B181A6893
:104F00005B680A920B9300F0F6FE0890099100F09E
:104F1000A7FF060000F064FF02000B000898099943
:104F200000F0B9FE0890099100226F4B00F044FF99
:104F300000282ED00136300000F052FF02000B0096
:104F40000A980B9900F028FF002801D001350026AF
:104F5000002F2CD1280000F047FF02000B001E9804
:104F60001F9900F098FE06000F0000225E4B00F033
:104F70000DFF002842D100225B4B3000390000F0C9
:104F80001BFF00283AD1EB0738D5013536E006275C
:104F900046E70022544B0898099900F0F7FE0028D4
:104FA000D6D1002E01D0F307D2D50136D0E7AA46DC
:104FB0001F2C11D8013F0A21300000F02BFC651C8A
:104FC00030310CAB19550A21300000F023FC092EBA
:104FD00026D906002C00EBE7554604E00CAA302148
:104FE00011551F0001341F2C02D87B1E002FF5D154
:104FF0001F2C03D80CAB2E221A5501341F2C14D8A9
:105000000A21280000F0DEFB661C30310CAB19557C
:105010000A21280000F0D6FB051E05D03400EDE77C
:105020002B0055461C00DEE734000323229A134070
:10503000012B1CD01F2C06D84346002B32D00CABC2
:105040002D221A550134229B0393219B0293019434
:105050000CAB00934B465A4607990698FFF7E8FABF
:1050600015B03CBC90469946A246AB46F0BD219B8C
:10507000002B13D04346002B02D10C3313420FD028
:10508000219B013B2193190003E00CAB30221A5500
:1050900001348C42CED21F2CF7D9CBE72199F8E707
:1050A0002199F6E7229B5B0704D50CAB2B221A55FE
:1050B0000134C8E7229B1B07C5D50CAB20221A552B
:1050C0000134C0E7FFFFEFFFFFFFEF7F65CDCD416C
:1050D00065CDCDC1481301104C13011040130110D0
:1050E0003C130110381501100000E03FF0B5DE461A
:1050F00057464E464546E0B593B082468B469046AD
:105100001193002900D1ECE200275546119B187835
:10511000002800D1E8E2252809D07C1C43463A004B
:105120005946A847119B013311932700EEE701333D
:10513000119300241DE00B00303BDBB2092B37D963
:105140002A293AD000230A93119B1A782E2A44D098
:1051500000239A46119A1378683BD9B2122900D9D4
:1051600080E08B00CB49CB589F4601231C43013282
:105170001192119A11780B00203BD8B21028DAD87E
:105180008300C548C3589F4602231C430132119235
:10519000EFE704231C4301321192EAE708231C4382
:1051A00001321192E5E710231C4301321192E0E72E
:1051B00011A8FFF72BFA0A90C6E71C9B1A1D1C9238
:1051C0001868002804DB0A90119B01331193BBE798
:1051D00002231C4343420A93F6E78022D200144381
:1051E0005A1C11925A781300303BDBB2092B04D9B8
:1051F0002A2A07D000239A46ACE711A8FFF706FA3F
:105200008246A7E71C9B1A1D1C921868002804DB25
:105210008246119B013311939CE70020F8E780231D
:105220005B002343511C119152786C2A01D01C0061
:1052300018E0C0239B001C430131119112E0802330
:105240002343511C11915278682A01D01C0009E0B7
:10525000C0231C430131119104E080235B001C43F7
:1052600001321192119B18780300253BDAB2532AC0
:1052700000D92CE29300894AD3589F4680239B0093
:105280001C4301321192EDE780235B001C43013285
:105290001192E7E7782809D0582838D06F2838D0FD
:1052A000622838D010239C430A2600E01026582894
:1052B00033D0692803D0642801D00C2294436305BD
:1052C00001D50122944369282AD0642828D0A30557
:1052D00000D59FE0E30500D5B8E0630600D4CAE03E
:1052E0001C9A111D1C911168FF220A4005940A9B0B
:1052F000049353460393029600230193009243467E
:105300003A0059462800FFF772FA070027E01026F6
:10531000CDE70826CBE70226C9E720221443C8E7D9
:10532000A30520D4E30550D4630666D51C9A111D4D
:105330001C911168FF220A40D317D11859400594D7
:105340000A9B0493534603930296D20F0192009155
:1053500043463A0059462800FFF749FA0700119BD7
:1053600001331193D2E61C9BDA1D07218A431100F9
:1053700008311C91116853689C46DB170C930D9300
:105380000C9A0D9B100048400E90624653400F93BC
:105390000E980F990C9A0D9B801A99410E900F91BF
:1053A00008940A9B0793534606930496002305939B
:1053B0006346DA0F02920090019143463A00594643
:1053C0002800FFF772FA0700C9E71C9A111D1C910B
:1053D0001268D317D118594005940A9B0493534679
:1053E00003930296D20F0192009143463A00594628
:1053F0002800FFF7FCF90700B1E7230605D51C9A42
:10540000111D1C910023D25E96E71C9A111D1C9160
:10541000126891E71C9BDA1D07218A4311000831AD
:105420001C9108940A9B0793534606930496002305
:1054300005930293136854680093019443463A001D
:1054400059462800FFF731FA070088E71C9A111D1A
:105450001C9105940A9B04935346039302960023E0
:1054600001931368009343463A0059462800FFF71A
:10547000BEF9070073E7230606D51C9A111D1C917F
:1054800012681204120C31E71C9A111D1C9112684B
:105490002CE7C04654130110A0130110E4130110AF
:1054A00046281AD01C9B0733072293431A00083260
:1054B0001C9204940A9A0392524602925C681B68FA
:1054C0000093019443463A0059462800FFF764FCD4
:1054D0000700119B0133119318E620231C43E1E7D9
:1054E000672801D0472802D180231B011C4345288F
:1054F00001D0472801D120231C431C9B07330722DE
:1055000093431A0008321C9204940A9A039252465A
:1055100002925C681B680093019443463A00594626
:105520002800FFF733FA0700119B01331193EDE5D3
:1055300002231A002240924623421FD001241C9BC2
:105540001A1D1C927A1C9146187843463A00594617
:10555000A8475346002B16D1119B013311934F4698
:10556000D4E5561C434659462020B8472300320054
:105570005C1C9D42F5D83D001700E0E701233A008E
:105580002F000A9DF4E74A46A9460A9D06E0571CEB
:10559000434659462020C84734003A00661CA542BD
:1055A000F5D84D469146D7E71C9B1A1D1C921B68E7
:1055B00099465346002B00D1013B4E4601E001368F
:1055C00013003278002A02D05A1E002BF7D14B4626
:1055D000F21A10928023DB0026001E401C4203D0EA
:1055E000524501D95346109302231A0022400B92D0
:1055F000234205D03A0037004C46A946554620E0E4
:105600003A00109B5F46B3462E0006E0551C434609
:1056100039002020B04723002A005C1C0A999942D7
:10562000F4D835005E46BB46109437004C46A94678
:10563000554606E01D000134561C43465946C847EE
:1056400032002078002804D0002FF4D06B1E002DEB
:10565000F0D117004D460B9B002B03D1119B01335A
:10566000119353E50A9F109B06E0561C434659468A
:105670002020A847230032005C1C9F42F5D8170069
:10568000ECE721231C431C9B1A1D1C921B680093F2
:105690000594082304935346039310230293002395
:1056A000019343463A0059462800FFF7A0F8070047
:1056B000119B0133119329E57C1C43463A0059465E
:1056C0002520A847119B0133119327001EE57C1C60
:1056D00043463A005946A847119B013311932700CE
:1056E00014E50B4B9A460FE5AA4647450DD34346B2
:1056F0005A1E434659460020D047380013B03CBCE0
:1057000090469946A246AB46F0BD3A00F1E7C04646
:10571000FD4500100EB410B585B0010007AC08CCF3
:1057200003940122009452420348FFF7DFFC05B0C6
:1057300010BC08BC03B01847F545001000B585B093
:10574000029003910121009313004A4202A90248EA
:10575000FFF7CCFC05B000BDFF4500100148042157
:10576000014B1847C00500208D57001010B50100EF
:1057700018231B8814221088984710BD10B501000B
:1057800018231B8816221088984710BDF0B5C6460E
:1057900000B507000E0000250123984600E0013502
:1057A000B5420AD2AC003C192068FFF7DFFF206049
:1057B0000028F4D100239846F1E7404604BC904607
:1057C000F0BD0000124A936F9B0815D29066D16617
:1057D000002905D0FFE7FFE7FFE7516F106F704723
:1057E00004B580210906C2175140002800D0C843E3
:1057F00009F01AFD002104BDF0B5146E556E576F07
:10580000166FFFF7E3FF1466556657671667F0BD1E
:10581000000000D0114A936F9B0813D210665166A6
:10582000002905D0FFE7FFE7FFE7516F106F7047D2
:1058300004B5002801D00020C04309F0F5FC002188
:1058400004BDC046F0B5146E556E576F166FFFF766
:10585000E5FF1466556657671667F0BD000000D077
:1058600094464E4A926F9208624601D230E0C0469A
:10587000F0B54A4EB56F6D08FCD3346E756E776F18
:10588000366F00F025F89446444A1466556657670B
:1058900016676246F0BDC0469446404A926F920831
:1058A000624601D258E0C046F0B53C4EB56F6D0877
:1058B000FCD3346E756E776F366F00F04DF89446FA
:1058C000364A14665566576716676246F0BDC0468D
:1058D000002B24DB11D000293EDA00B5C943404239
:1058E00000D1013100F038F8C943404200D1013104
:1058F000DB43524200D1013300BD002AEBD1002826
:1059000001D1002905D00020C90FC90701D1C0432A
:10591000410800B509F080FC0022002300BD00B55D
:1059200000290ADBDB43524200D1013300F014F8B6
:10593000C943404200D1013100BDC943404200D1BA
:105940000131DB43524200D1013300F005F8DB4363
:10595000524200D1013300BD002923D1002B18D1C0
:10596000002A0CD0BC460D4F38667A660021002311
:10597000FFE7FFE7FFE77A6F386F67467047002859
:1059800001D00748010000B509F046FC00220023C1
:1059900000BD02000B00002000217047000000D075
:1059A000FFFFFFFF002B00D0BDE0130C26D1002A23
:1059B000E7D080B4104F39667A66FFE7FFE730B46E
:1059C000040C7B6F396F1B0423433B66FFE7FFE743
:1059D000FFE7C04684B27B6F3D6F1B0423433B66E9
:1059E000FFE7FFE7C04600232C042D0C7A6F386FC9
:1059F00000196941B0BC7047000000D0F0B5944672
:105A00000025140E01D112020835140F01D1120124
:105A10000435940F01D192000235D40F01D1520008
:105A20000135D40B0134254F7C66254C3C660E0CA9
:105A300093B2FFE7FFE7FFE73C6F6643360C77035F
:105A4000BE467343DF0B5B04C01AB941130C7343AA
:105A5000DB18C91ACE086643360CB64493B27343BA
:105A60001F0F1B01C01AB941130C73431F0B1B05F9
:105A7000C01AB941860D8F023E436643360C092D8C
:105A800024DB520A7243801A7703460A6643360CB7
:105A900016235B1BDE40DF40BF1964466643821B52
:105AA0007046043506330100D940A840C01900D320
:105AB0000131A24206D20023F0BD0000000000D058
:105AC000FFFFFFFF121B0130F3D3F1E709277F1B14
:105AD000FE406446A2B27243801A00D20139220C01
